{
  "_format": "hh-sol-artifact-1",
  "contractName": "CredentialNFT",
  "sourceName": "contracts/CredentialNFT.sol",
  "abi": [
    {
      "inputs": [],
      "stateMutability": "nonpayable",
      "type": "constructor"
    },
    {
      "inputs": [],
      "name": "ERC721EnumerableForbiddenBatchMint",
      "type": "error"
    },
    {
      "inputs": [
        {
          "internalType": "address",
          "name": "sender",
          "type": "address"
        },
        {
          "internalType": "uint256",
          "name": "tokenId",
          "type": "uint256"
        },
        {
          "internalType": "address",
          "name": "owner",
          "type": "address"
        }
      ],
      "name": "ERC721IncorrectOwner",
      "type": "error"
    },
    {
      "inputs": [
        {
          "internalType": "address",
          "name": "operator",
          "type": "address"
        },
        {
          "internalType": "uint256",
          "name": "tokenId",
          "type": "uint256"
        }
      ],
      "name": "ERC721InsufficientApproval",
      "type": "error"
    },
    {
      "inputs": [
        {
          "internalType": "address",
          "name": "approver",
          "type": "address"
        }
      ],
      "name": "ERC721InvalidApprover",
      "type": "error"
    },
    {
      "inputs": [
        {
          "internalType": "address",
          "name": "operator",
          "type": "address"
        }
      ],
      "name": "ERC721InvalidOperator",
      "type": "error"
    },
    {
      "inputs": [
        {
          "internalType": "address",
          "name": "owner",
          "type": "address"
        }
      ],
      "name": "ERC721InvalidOwner",
      "type": "error"
    },
    {
      "inputs": [
        {
          "internalType": "address",
          "name": "receiver",
          "type": "address"
        }
      ],
      "name": "ERC721InvalidReceiver",
      "type": "error"
    },
    {
      "inputs": [
        {
          "internalType": "address",
          "name": "sender",
          "type": "address"
        }
      ],
      "name": "ERC721InvalidSender",
      "type": "error"
    },
    {
      "inputs": [
        {
          "internalType": "uint256",
          "name": "tokenId",
          "type": "uint256"
        }
      ],
      "name": "ERC721NonexistentToken",
      "type": "error"
    },
    {
      "inputs": [
        {
          "internalType": "address",
          "name": "owner",
          "type": "address"
        },
        {
          "internalType": "uint256",
          "name": "index",
          "type": "uint256"
        }
      ],
      "name": "ERC721OutOfBoundsIndex",
      "type": "error"
    },
    {
      "anonymous": false,
      "inputs": [
        {
          "indexed": true,
          "internalType": "address",
          "name": "owner",
          "type": "address"
        },
        {
          "indexed": true,
          "internalType": "address",
          "name": "approved",
          "type": "address"
        },
        {
          "indexed": true,
          "internalType": "uint256",
          "name": "tokenId",
          "type": "uint256"
        }
      ],
      "name": "Approval",
      "type": "event"
    },
    {
      "anonymous": false,
      "inputs": [
        {
          "indexed": true,
          "internalType": "address",
          "name": "owner",
          "type": "address"
        },
        {
          "indexed": true,
          "internalType": "address",
          "name": "operator",
          "type": "address"
        },
        {
          "indexed": false,
          "internalType": "bool",
          "name": "approved",
          "type": "bool"
        }
      ],
      "name": "ApprovalForAll",
      "type": "event"
    },
    {
      "anonymous": false,
      "inputs": [
        {
          "indexed": true,
          "internalType": "address",
          "name": "from",
          "type": "address"
        },
        {
          "indexed": true,
          "internalType": "address",
          "name": "to",
          "type": "address"
        },
        {
          "indexed": true,
          "internalType": "uint256",
          "name": "tokenId",
          "type": "uint256"
        }
      ],
      "name": "Transfer",
      "type": "event"
    },
    {
      "inputs": [],
      "name": "admin",
      "outputs": [
        {
          "internalType": "address",
          "name": "",
          "type": "address"
        }
      ],
      "stateMutability": "view",
      "type": "function"
    },
    {
      "inputs": [
        {
          "internalType": "address",
          "name": "to",
          "type": "address"
        },
        {
          "internalType": "uint256",
          "name": "tokenId",
          "type": "uint256"
        }
      ],
      "name": "approve",
      "outputs": [],
      "stateMutability": "nonpayable",
      "type": "function"
    },
    {
      "inputs": [
        {
          "internalType": "address",
          "name": "owner",
          "type": "address"
        }
      ],
      "name": "balanceOf",
      "outputs": [
        {
          "internalType": "uint256",
          "name": "",
          "type": "uint256"
        }
      ],
      "stateMutability": "view",
      "type": "function"
    },
    {
      "inputs": [
        {
          "internalType": "uint256",
          "name": "tokenId",
          "type": "uint256"
        }
      ],
      "name": "getApproved",
      "outputs": [
        {
          "internalType": "address",
          "name": "",
          "type": "address"
        }
      ],
      "stateMutability": "view",
      "type": "function"
    },
    {
      "inputs": [
        {
          "internalType": "address",
          "name": "owner",
          "type": "address"
        },
        {
          "internalType": "address",
          "name": "operator",
          "type": "address"
        }
      ],
      "name": "isApprovedForAll",
      "outputs": [
        {
          "internalType": "bool",
          "name": "",
          "type": "bool"
        }
      ],
      "stateMutability": "view",
      "type": "function"
    },
    {
      "inputs": [
        {
          "internalType": "address",
          "name": "to",
          "type": "address"
        },
        {
          "internalType": "uint256",
          "name": "tokenId",
          "type": "uint256"
        }
      ],
      "name": "mint",
      "outputs": [],
      "stateMutability": "nonpayable",
      "type": "function"
    },
    {
      "inputs": [],
      "name": "name",
      "outputs": [
        {
          "internalType": "string",
          "name": "",
          "type": "string"
        }
      ],
      "stateMutability": "view",
      "type": "function"
    },
    {
      "inputs": [
        {
          "internalType": "uint256",
          "name": "tokenId",
          "type": "uint256"
        }
      ],
      "name": "ownerOf",
      "outputs": [
        {
          "internalType": "address",
          "name": "",
          "type": "address"
        }
      ],
      "stateMutability": "view",
      "type": "function"
    },
    {
      "inputs": [
        {
          "internalType": "address",
          "name": "from",
          "type": "address"
        },
        {
          "internalType": "address",
          "name": "to",
          "type": "address"
        },
        {
          "internalType": "uint256",
          "name": "tokenId",
          "type": "uint256"
        }
      ],
      "name": "safeTransferFrom",
      "outputs": [],
      "stateMutability": "nonpayable",
      "type": "function"
    },
    {
      "inputs": [
        {
          "internalType": "address",
          "name": "from",
          "type": "address"
        },
        {
          "internalType": "address",
          "name": "to",
          "type": "address"
        },
        {
          "internalType": "uint256",
          "name": "tokenId",
          "type": "uint256"
        },
        {
          "internalType": "bytes",
          "name": "data",
          "type": "bytes"
        }
      ],
      "name": "safeTransferFrom",
      "outputs": [],
      "stateMutability": "nonpayable",
      "type": "function"
    },
    {
      "inputs": [
        {
          "internalType": "address",
          "name": "operator",
          "type": "address"
        },
        {
          "internalType": "bool",
          "name": "approved",
          "type": "bool"
        }
      ],
      "name": "setApprovalForAll",
      "outputs": [],
      "stateMutability": "nonpayable",
      "type": "function"
    },
    {
      "inputs": [
        {
          "internalType": "bytes4",
          "name": "interfaceId",
          "type": "bytes4"
        }
      ],
      "name": "supportsInterface",
      "outputs": [
        {
          "internalType": "bool",
          "name": "",
          "type": "bool"
        }
      ],
      "stateMutability": "view",
      "type": "function"
    },
    {
      "inputs": [],
      "name": "symbol",
      "outputs": [
        {
          "internalType": "string",
          "name": "",
          "type": "string"
        }
      ],
      "stateMutability": "view",
      "type": "function"
    },
    {
      "inputs": [
        {
          "internalType": "uint256",
          "name": "index",
          "type": "uint256"
        }
      ],
      "name": "tokenByIndex",
      "outputs": [
        {
          "internalType": "uint256",
          "name": "",
          "type": "uint256"
        }
      ],
      "stateMutability": "view",
      "type": "function"
    },
    {
      "inputs": [
        {
          "internalType": "address",
          "name": "owner",
          "type": "address"
        },
        {
          "internalType": "uint256",
          "name": "index",
          "type": "uint256"
        }
      ],
      "name": "tokenOfOwnerByIndex",
      "outputs": [
        {
          "internalType": "uint256",
          "name": "",
          "type": "uint256"
        }
      ],
      "stateMutability": "view",
      "type": "function"
    },
    {
      "inputs": [
        {
          "internalType": "uint256",
          "name": "tokenId",
          "type": "uint256"
        }
      ],
      "name": "tokenURI",
      "outputs": [
        {
          "internalType": "string",
          "name": "",
          "type": "string"
        }
      ],
      "stateMutability": "view",
      "type": "function"
    },
    {
      "inputs": [],
      "name": "totalSupply",
      "outputs": [
        {
          "internalType": "uint256",
          "name": "",
          "type": "uint256"
        }
      ],
      "stateMutability": "view",
      "type": "function"
    },
    {
      "inputs": [
        {
          "internalType": "address",
          "name": "from",
          "type": "address"
        },
        {
          "internalType": "address",
          "name": "to",
          "type": "address"
        },
        {
          "internalType": "uint256",
          "name": "tokenId",
          "type": "uint256"
        }
      ],
      "name": "transferFrom",
      "outputs": [],
      "stateMutability": "nonpayable",
      "type": "function"
    }
  ],
  "bytecode": "0x60806040523480156200001157600080fd5b506040518060400160405280600d81526020017f43726564656e7469616c4e4654000000000000000000000000000000000000008152506040518060400160405280600781526020017f435245444e46540000000000000000000000000000000000000000000000000081525081600090816200008f919062000365565b508060019081620000a1919062000365565b50505033600a60006101000a81548173ffffffffffffffffffffffffffffffffffffffff021916908373ffffffffffffffffffffffffffffffffffffffff1602179055506200044c565b600081519050919050565b7f4e487b7100000000000000000000000000000000000000000000000000000000600052604160045260246000fd5b7f4e487b7100000000000000000000000000000000000000000000000000000000600052602260045260246000fd5b600060028204905060018216806200016d57607f821691505b60208210810362000183576200018262000125565b5b50919050565b60008190508160005260206000209050919050565b60006020601f8301049050919050565b600082821b905092915050565b600060088302620001ed7fffffffffffffffffffffffffffffffffffffffffffffffffffffffffffffffff82620001ae565b620001f98683620001ae565b95508019841693508086168417925050509392505050565b6000819050919050565b6000819050919050565b600062000246620002406200023a8462000211565b6200021b565b62000211565b9050919050565b6000819050919050565b620002628362000225565b6200027a62000271826200024d565b848454620001bb565b825550505050565b600090565b6200029162000282565b6200029e81848462000257565b505050565b5b81811015620002c657620002ba60008262000287565b600181019050620002a4565b5050565b601f8211156200031557620002df8162000189565b620002ea846200019e565b81016020851015620002fa578190505b6200031262000309856200019e565b830182620002a3565b50505b505050565b600082821c905092915050565b60006200033a600019846008026200031a565b1980831691505092915050565b600062000355838362000327565b9150826002028217905092915050565b6200037082620000eb565b67ffffffffffffffff8111156200038c576200038b620000f6565b5b62000398825462000154565b620003a5828285620002ca565b600060209050601f831160018114620003dd5760008415620003c8578287015190505b620003d4858262000347565b86555062000444565b601f198416620003ed8662000189565b60005b828110156200041757848901518255600182019150602085019450602081019050620003f0565b8683101562000437578489015162000433601f89168262000327565b8355505b6001600288020188555050505b505050505050565b612668806200045c6000396000f3fe608060405234801561001057600080fd5b50600436106101165760003560e01c80634f6ccce7116100a2578063a22cb46511610071578063a22cb46514610305578063b88d4fde14610321578063c87b56dd1461033d578063e985e9c51461036d578063f851a4401461039d57610116565b80634f6ccce7146102575780636352211e1461028757806370a08231146102b757806395d89b41146102e757610116565b806318160ddd116100e957806318160ddd146101b557806323b872dd146101d35780632f745c59146101ef57806340c10f191461021f57806342842e0e1461023b57610116565b806301ffc9a71461011b57806306fdde031461014b578063081812fc14610169578063095ea7b314610199575b600080fd5b61013560048036038101906101309190611d85565b6103bb565b6040516101429190611dcd565b60405180910390f35b610153610435565b6040516101609190611e78565b60405180910390f35b610183600480360381019061017e9190611ed0565b6104c7565b6040516101909190611f3e565b60405180910390f35b6101b360048036038101906101ae9190611f85565b6104e3565b005b6101bd6104f9565b6040516101ca9190611fd4565b60405180910390f35b6101ed60048036038101906101e89190611fef565b610506565b005b61020960048036038101906102049190611f85565b610608565b6040516102169190611fd4565b60405180910390f35b61023960048036038101906102349190611f85565b6106b1565b005b61025560048036038101906102509190611fef565b61074f565b005b610271600480360381019061026c9190611ed0565b61076f565b60405161027e9190611fd4565b60405180910390f35b6102a1600480360381019061029c9190611ed0565b6107e5565b6040516102ae9190611f3e565b60405180910390f35b6102d160048036038101906102cc9190612042565b6107f7565b6040516102de9190611fd4565b60405180910390f35b6102ef6108b1565b6040516102fc9190611e78565b60405180910390f35b61031f600480360381019061031a919061209b565b610943565b005b61033b60048036038101906103369190612210565b610959565b005b61035760048036038101906103529190611ed0565b610976565b6040516103649190611e78565b60405180910390f35b61038760048036038101906103829190612293565b6109df565b6040516103949190611dcd565b60405180910390f35b6103a5610a73565b6040516103b29190611f3e565b60405180910390f35b60007f780e9d63000000000000000000000000000000000000000000000000000000007bffffffffffffffffffffffffffffffffffffffffffffffffffffffff1916827bffffffffffffffffffffffffffffffffffffffffffffffffffffffff1916148061042e575061042d82610a99565b5b9050919050565b60606000805461044490612302565b80601f016020809104026020016040519081016040528092919081815260200182805461047090612302565b80156104bd5780601f10610492576101008083540402835291602001916104bd565b820191906000526020600020905b8154815290600101906020018083116104a057829003601f168201915b5050505050905090565b60006104d282610b7b565b506104dc82610c03565b9050919050565b6104f582826104f0610c40565b610c48565b5050565b6000600880549050905090565b600073ffffffffffffffffffffffffffffffffffffffff168273ffffffffffffffffffffffffffffffffffffffff16036105785760006040517f64a0ae9200000000000000000000000000000000000000000000000000000000815260040161056f9190611f3e565b60405180910390fd5b600061058c8383610587610c40565b610c5a565b90508373ffffffffffffffffffffffffffffffffffffffff168173ffffffffffffffffffffffffffffffffffffffff1614610602578382826040517f64283d7b0000000000000000000000000000000000000000000000000000000081526004016105f993929190612333565b60405180910390fd5b50505050565b6000610613836107f7565b82106106585782826040517fa57d13dc00000000000000000000000000000000000000000000000000000000815260040161064f92919061236a565b60405180910390fd5b600660008473ffffffffffffffffffffffffffffffffffffffff1673ffffffffffffffffffffffffffffffffffffffff168152602001908152602001600020600083815260200190815260200160002054905092915050565b600a60009054906101000a900473ffffffffffffffffffffffffffffffffffffffff1673ffffffffffffffffffffffffffffffffffffffff163373ffffffffffffffffffffffffffffffffffffffff1614610741576040517f08c379a0000000000000000000000000000000000000000000000000000000008152600401610738906123df565b60405180910390fd5b61074b8282610d77565b5050565b61076a83838360405180602001604052806000815250610959565b505050565b60006107796104f9565b82106107bf576000826040517fa57d13dc0000000000000000000000000000000000000000000000000000000081526004016107b692919061236a565b60405180910390fd5b600882815481106107d3576107d26123ff565b5b90600052602060002001549050919050565b60006107f082610b7b565b9050919050565b60008073ffffffffffffffffffffffffffffffffffffffff168273ffffffffffffffffffffffffffffffffffffffff160361086a5760006040517f89c62b640000000000000000000000000000000000000000000000000000000081526004016108619190611f3e565b60405180910390fd5b600360008373ffffffffffffffffffffffffffffffffffffffff1673ffffffffffffffffffffffffffffffffffffffff168152602001908152602001600020549050919050565b6060600180546108c090612302565b80601f01602080910402602001604051908101604052809291908181526020018280546108ec90612302565b80156109395780601f1061090e57610100808354040283529160200191610939565b820191906000526020600020905b81548152906001019060200180831161091c57829003601f168201915b5050505050905090565b61095561094e610c40565b8383610d95565b5050565b610964848484610506565b61097084848484610f04565b50505050565b606061098182610b7b565b50600061098c6110bb565b905060008151116109ac57604051806020016040528060008152506109d7565b806109b6846110d2565b6040516020016109c792919061246a565b6040516020818303038152906040525b915050919050565b6000600560008473ffffffffffffffffffffffffffffffffffffffff1673ffffffffffffffffffffffffffffffffffffffff16815260200190815260200160002060008373ffffffffffffffffffffffffffffffffffffffff1673ffffffffffffffffffffffffffffffffffffffff16815260200190815260200160002060009054906101000a900460ff16905092915050565b600a60009054906101000a900473ffffffffffffffffffffffffffffffffffffffff1681565b60007f80ac58cd000000000000000000000000000000000000000000000000000000007bffffffffffffffffffffffffffffffffffffffffffffffffffffffff1916827bffffffffffffffffffffffffffffffffffffffffffffffffffffffff19161480610b6457507f5b5e139f000000000000000000000000000000000000000000000000000000007bffffffffffffffffffffffffffffffffffffffffffffffffffffffff1916827bffffffffffffffffffffffffffffffffffffffffffffffffffffffff1916145b80610b745750610b73826111a0565b5b9050919050565b600080610b878361120a565b9050600073ffffffffffffffffffffffffffffffffffffffff168173ffffffffffffffffffffffffffffffffffffffff1603610bfa57826040517f7e273289000000000000000000000000000000000000000000000000000000008152600401610bf19190611fd4565b60405180910390fd5b80915050919050565b60006004600083815260200190815260200160002060009054906101000a900473ffffffffffffffffffffffffffffffffffffffff169050919050565b600033905090565b610c558383836001611247565b505050565b600080610c6885858561140c565b9050600073ffffffffffffffffffffffffffffffffffffffff168173ffffffffffffffffffffffffffffffffffffffff1603610cac57610ca784611626565b610ceb565b8473ffffffffffffffffffffffffffffffffffffffff168173ffffffffffffffffffffffffffffffffffffffff1614610cea57610ce9818561166f565b5b5b600073ffffffffffffffffffffffffffffffffffffffff168573ffffffffffffffffffffffffffffffffffffffff1603610d2d57610d28846117d0565b610d6c565b8473ffffffffffffffffffffffffffffffffffffffff168173ffffffffffffffffffffffffffffffffffffffff1614610d6b57610d6a85856118a1565b5b5b809150509392505050565b610d9182826040518060200160405280600081525061192c565b5050565b600073ffffffffffffffffffffffffffffffffffffffff168273ffffffffffffffffffffffffffffffffffffffff1603610e0657816040517f5b08ba18000000000000000000000000000000000000000000000000000000008152600401610dfd9190611f3e565b60405180910390fd5b80600560008573ffffffffffffffffffffffffffffffffffffffff1673ffffffffffffffffffffffffffffffffffffffff16815260200190815260200160002060008473ffffffffffffffffffffffffffffffffffffffff1673ffffffffffffffffffffffffffffffffffffffff16815260200190815260200160002060006101000a81548160ff0219169083151502179055508173ffffffffffffffffffffffffffffffffffffffff168373ffffffffffffffffffffffffffffffffffffffff167f17307eab39ab6107e8899845ad3d59bd9653f200f220920489ca2b5937696c3183604051610ef79190611dcd565b60405180910390a3505050565b60008373ffffffffffffffffffffffffffffffffffffffff163b11156110b5578273ffffffffffffffffffffffffffffffffffffffff1663150b7a02610f48610c40565b8685856040518563ffffffff1660e01b8152600401610f6a94939291906124e3565b6020604051808303816000875af1925050508015610fa657506040513d601f19601f82011682018060405250810190610fa39190612544565b60015b61102a573d8060008114610fd6576040519150601f19603f3d011682016040523d82523d6000602084013e610fdb565b606091505b50600081510361102257836040517f64a0ae920000000000000000000000000000000000000000000000000000000081526004016110199190611f3e565b60405180910390fd5b805181602001fd5b63150b7a0260e01b7bffffffffffffffffffffffffffffffffffffffffffffffffffffffff1916817bffffffffffffffffffffffffffffffffffffffffffffffffffffffff1916146110b357836040517f64a0ae920000000000000000000000000000000000000000000000000000000081526004016110aa9190611f3e565b60405180910390fd5b505b50505050565b606060405180602001604052806000815250905090565b6060600060016110e184611948565b01905060008167ffffffffffffffff811115611100576110ff6120e5565b5b6040519080825280601f01601f1916602001820160405280156111325781602001600182028036833780820191505090505b509050600082602001820190505b600115611195578080600190039150507f3031323334353637383961626364656600000000000000000000000000000000600a86061a8153600a858161118957611188612571565b5b04945060008503611140575b819350505050919050565b60007f01ffc9a7000000000000000000000000000000000000000000000000000000007bffffffffffffffffffffffffffffffffffffffffffffffffffffffff1916827bffffffffffffffffffffffffffffffffffffffffffffffffffffffff1916149050919050565b60006002600083815260200190815260200160002060009054906101000a900473ffffffffffffffffffffffffffffffffffffffff169050919050565b80806112805750600073ffffffffffffffffffffffffffffffffffffffff168273ffffffffffffffffffffffffffffffffffffffff1614155b156113b457600061129084610b7b565b9050600073ffffffffffffffffffffffffffffffffffffffff168373ffffffffffffffffffffffffffffffffffffffff16141580156112fb57508273ffffffffffffffffffffffffffffffffffffffff168173ffffffffffffffffffffffffffffffffffffffff1614155b801561130e575061130c81846109df565b155b1561135057826040517fa9fbf51f0000000000000000000000000000000000000000000000000000000081526004016113479190611f3e565b60405180910390fd5b81156113b257838573ffffffffffffffffffffffffffffffffffffffff168273ffffffffffffffffffffffffffffffffffffffff167f8c5be1e5ebec7d5bd14f71427d1e84f3dd0314c0f7b2291e5b200ac8c7c3b92560405160405180910390a45b505b836004600085815260200190815260200160002060006101000a81548173ffffffffffffffffffffffffffffffffffffffff021916908373ffffffffffffffffffffffffffffffffffffffff16021790555050505050565b6000806114188461120a565b9050600073ffffffffffffffffffffffffffffffffffffffff168373ffffffffffffffffffffffffffffffffffffffff161461145a57611459818486611a9b565b5b600073ffffffffffffffffffffffffffffffffffffffff168173ffffffffffffffffffffffffffffffffffffffff16146114eb5761149c600085600080611247565b6001600360008373ffffffffffffffffffffffffffffffffffffffff1673ffffffffffffffffffffffffffffffffffffffff168152602001908152602001600020600082825403925050819055505b600073ffffffffffffffffffffffffffffffffffffffff168573ffffffffffffffffffffffffffffffffffffffff161461156e576001600360008773ffffffffffffffffffffffffffffffffffffffff1673ffffffffffffffffffffffffffffffffffffffff168152602001908152602001600020600082825401925050819055505b846002600086815260200190815260200160002060006101000a81548173ffffffffffffffffffffffffffffffffffffffff021916908373ffffffffffffffffffffffffffffffffffffffff160217905550838573ffffffffffffffffffffffffffffffffffffffff168273ffffffffffffffffffffffffffffffffffffffff167fddf252ad1be2c89b69c2b068fc378daa952ba7f163c4a11628f55a4df523b3ef60405160405180910390a4809150509392505050565b6008805490506009600083815260200190815260200160002081905550600881908060018154018082558091505060019003906000526020600020016000909190919091505550565b600061167a836107f7565b905060006007600084815260200190815260200160002054905081811461175f576000600660008673ffffffffffffffffffffffffffffffffffffffff1673ffffffffffffffffffffffffffffffffffffffff168152602001908152602001600020600084815260200190815260200160002054905080600660008773ffffffffffffffffffffffffffffffffffffffff1673ffffffffffffffffffffffffffffffffffffffff168152602001908152602001600020600084815260200190815260200160002081905550816007600083815260200190815260200160002081905550505b6007600084815260200190815260200160002060009055600660008573ffffffffffffffffffffffffffffffffffffffff1673ffffffffffffffffffffffffffffffffffffffff16815260200190815260200160002060008381526020019081526020016000206000905550505050565b600060016008805490506117e491906125cf565b9050600060096000848152602001908152602001600020549050600060088381548110611814576118136123ff565b5b906000526020600020015490508060088381548110611836576118356123ff565b5b90600052602060002001819055508160096000838152602001908152602001600020819055506009600085815260200190815260200160002060009055600880548061188557611884612603565b5b6001900381819060005260206000200160009055905550505050565b600060016118ae846107f7565b6118b891906125cf565b905081600660008573ffffffffffffffffffffffffffffffffffffffff1673ffffffffffffffffffffffffffffffffffffffff168152602001908152602001600020600083815260200190815260200160002081905550806007600084815260200190815260200160002081905550505050565b6119368383611b5f565b6119436000848484610f04565b505050565b600080600090507a184f03e93ff9f4daa797ed6e38ed64bf6a1f01000000000000000083106119a6577a184f03e93ff9f4daa797ed6e38ed64bf6a1f010000000000000000838161199c5761199b612571565b5b0492506040810190505b6d04ee2d6d415b85acef810000000083106119e3576d04ee2d6d415b85acef810000000083816119d9576119d8612571565b5b0492506020810190505b662386f26fc100008310611a1257662386f26fc100008381611a0857611a07612571565b5b0492506010810190505b6305f5e1008310611a3b576305f5e1008381611a3157611a30612571565b5b0492506008810190505b6127108310611a60576127108381611a5657611a55612571565b5b0492506004810190505b60648310611a835760648381611a7957611a78612571565b5b0492506002810190505b600a8310611a92576001810190505b80915050919050565b611aa6838383611c58565b611b5a57600073ffffffffffffffffffffffffffffffffffffffff168373ffffffffffffffffffffffffffffffffffffffff1603611b1b57806040517f7e273289000000000000000000000000000000000000000000000000000000008152600401611b129190611fd4565b60405180910390fd5b81816040517f177e802f000000000000000000000000000000000000000000000000000000008152600401611b5192919061236a565b60405180910390fd5b505050565b600073ffffffffffffffffffffffffffffffffffffffff168273ffffffffffffffffffffffffffffffffffffffff1603611bd15760006040517f64a0ae92000000000000000000000000000000000000000000000000000000008152600401611bc89190611f3e565b60405180910390fd5b6000611bdf83836000610c5a565b9050600073ffffffffffffffffffffffffffffffffffffffff168173ffffffffffffffffffffffffffffffffffffffff1614611c535760006040517f73c6ac6e000000000000000000000000000000000000000000000000000000008152600401611c4a9190611f3e565b60405180910390fd5b505050565b60008073ffffffffffffffffffffffffffffffffffffffff168373ffffffffffffffffffffffffffffffffffffffff1614158015611d1057508273ffffffffffffffffffffffffffffffffffffffff168473ffffffffffffffffffffffffffffffffffffffff161480611cd15750611cd084846109df565b5b80611d0f57508273ffffffffffffffffffffffffffffffffffffffff16611cf783610c03565b73ffffffffffffffffffffffffffffffffffffffff16145b5b90509392505050565b6000604051905090565b600080fd5b600080fd5b60007fffffffff0000000000000000000000000000000000000000000000000000000082169050919050565b611d6281611d2d565b8114611d6d57600080fd5b50565b600081359050611d7f81611d59565b92915050565b600060208284031215611d9b57611d9a611d23565b5b6000611da984828501611d70565b91505092915050565b60008115159050919050565b611dc781611db2565b82525050565b6000602082019050611de26000830184611dbe565b92915050565b600081519050919050565b600082825260208201905092915050565b60005b83811015611e22578082015181840152602081019050611e07565b60008484015250505050565b6000601f19601f8301169050919050565b6000611e4a82611de8565b611e548185611df3565b9350611e64818560208601611e04565b611e6d81611e2e565b840191505092915050565b60006020820190508181036000830152611e928184611e3f565b905092915050565b6000819050919050565b611ead81611e9a565b8114611eb857600080fd5b50565b600081359050611eca81611ea4565b92915050565b600060208284031215611ee657611ee5611d23565b5b6000611ef484828501611ebb565b91505092915050565b600073ffffffffffffffffffffffffffffffffffffffff82169050919050565b6000611f2882611efd565b9050919050565b611f3881611f1d565b82525050565b6000602082019050611f536000830184611f2f565b92915050565b611f6281611f1d565b8114611f6d57600080fd5b50565b600081359050611f7f81611f59565b92915050565b60008060408385031215611f9c57611f9b611d23565b5b6000611faa85828601611f70565b9250506020611fbb85828601611ebb565b9150509250929050565b611fce81611e9a565b82525050565b6000602082019050611fe96000830184611fc5565b92915050565b60008060006060848603121561200857612007611d23565b5b600061201686828701611f70565b935050602061202786828701611f70565b925050604061203886828701611ebb565b9150509250925092565b60006020828403121561205857612057611d23565b5b600061206684828501611f70565b91505092915050565b61207881611db2565b811461208357600080fd5b50565b6000813590506120958161206f565b92915050565b600080604083850312156120b2576120b1611d23565b5b60006120c085828601611f70565b92505060206120d185828601612086565b9150509250929050565b600080fd5b600080fd5b7f4e487b7100000000000000000000000000000000000000000000000000000000600052604160045260246000fd5b61211d82611e2e565b810181811067ffffffffffffffff8211171561213c5761213b6120e5565b5b80604052505050565b600061214f611d19565b905061215b8282612114565b919050565b600067ffffffffffffffff82111561217b5761217a6120e5565b5b61218482611e2e565b9050602081019050919050565b82818337600083830152505050565b60006121b36121ae84612160565b612145565b9050828152602081018484840111156121cf576121ce6120e0565b5b6121da848285612191565b509392505050565b600082601f8301126121f7576121f66120db565b5b81356122078482602086016121a0565b91505092915050565b6000806000806080858703121561222a57612229611d23565b5b600061223887828801611f70565b945050602061224987828801611f70565b935050604061225a87828801611ebb565b925050606085013567ffffffffffffffff81111561227b5761227a611d28565b5b612287878288016121e2565b91505092959194509250565b600080604083850312156122aa576122a9611d23565b5b60006122b885828601611f70565b92505060206122c985828601611f70565b9150509250929050565b7f4e487b7100000000000000000000000000000000000000000000000000000000600052602260045260246000fd5b6000600282049050600182168061231a57607f821691505b60208210810361232d5761232c6122d3565b5b50919050565b60006060820190506123486000830186611f2f565b6123556020830185611fc5565b6123626040830184611f2f565b949350505050565b600060408201905061237f6000830185611f2f565b61238c6020830184611fc5565b9392505050565b7f4f6e6c792061646d696e2063616e206d696e7420746f6b656e73000000000000600082015250565b60006123c9601a83611df3565b91506123d482612393565b602082019050919050565b600060208201905081810360008301526123f8816123bc565b9050919050565b7f4e487b7100000000000000000000000000000000000000000000000000000000600052603260045260246000fd5b600081905092915050565b600061244482611de8565b61244e818561242e565b935061245e818560208601611e04565b80840191505092915050565b60006124768285612439565b91506124828284612439565b91508190509392505050565b600081519050919050565b600082825260208201905092915050565b60006124b58261248e565b6124bf8185612499565b93506124cf818560208601611e04565b6124d881611e2e565b840191505092915050565b60006080820190506124f86000830187611f2f565b6125056020830186611f2f565b6125126040830185611fc5565b818103606083015261252481846124aa565b905095945050505050565b60008151905061253e81611d59565b92915050565b60006020828403121561255a57612559611d23565b5b60006125688482850161252f565b91505092915050565b7f4e487b7100000000000000000000000000000000000000000000000000000000600052601260045260246000fd5b7f4e487b7100000000000000000000000000000000000000000000000000000000600052601160045260246000fd5b60006125da82611e9a565b91506125e583611e9a565b92508282039050818111156125fd576125fc6125a0565b5b92915050565b7f4e487b7100000000000000000000000000000000000000000000000000000000600052603160045260246000fdfea2646970667358221220b6812073a7f7fd802e9cdc0ee504f37d266be218d091a6a3ce72a9b1c9beb20f64736f6c63430008160033",
  "linkReferences": {},
  "deployedLinkReferences": {}
}