{
  "_format": "hh-sol-artifact-1",
  "contractName": "Credential",
  "sourceName": "contracts/Credential.sol",
  "abi": [
    {
      "anonymous": false,
      "inputs": [
        {
          "indexed": true,
          "internalType": "uint256",
          "name": "id",
          "type": "uint256"
        },
        {
          "indexed": false,
          "internalType": "uint256",
          "name": "grade",
          "type": "uint256"
        }
      ],
      "name": "GradeUpdated",
      "type": "event"
    },
    {
      "anonymous": false,
      "inputs": [
        {
          "indexed": true,
          "internalType": "uint256",
          "name": "id",
          "type": "uint256"
        },
        {
          "indexed": false,
          "internalType": "string",
          "name": "name",
          "type": "string"
        }
      ],
      "name": "StudentAdded",
      "type": "event"
    },
    {
      "anonymous": false,
      "inputs": [
        {
          "indexed": true,
          "internalType": "uint256",
          "name": "id",
          "type": "uint256"
        }
      ],
      "name": "StudentRemoved",
      "type": "event"
    },
    {
      "inputs": [
        {
          "internalType": "uint256",
          "name": "_id",
          "type": "uint256"
        },
        {
          "internalType": "string",
          "name": "_name",
          "type": "string"
        }
      ],
      "name": "addStudent",
      "outputs": [],
      "stateMutability": "nonpayable",
      "type": "function"
    },
    {
      "inputs": [
        {
          "internalType": "uint256",
          "name": "_id",
          "type": "uint256"
        }
      ],
      "name": "removeStudent",
      "outputs": [],
      "stateMutability": "nonpayable",
      "type": "function"
    },
    {
      "inputs": [
        {
          "internalType": "uint256",
          "name": "_id",
          "type": "uint256"
        },
        {
          "internalType": "uint256",
          "name": "_grade",
          "type": "uint256"
        }
      ],
      "name": "setGrade",
      "outputs": [],
      "stateMutability": "nonpayable",
      "type": "function"
    },
    {
      "inputs": [],
      "name": "studentCount",
      "outputs": [
        {
          "internalType": "uint256",
          "name": "",
          "type": "uint256"
        }
      ],
      "stateMutability": "view",
      "type": "function"
    },
    {
      "inputs": [
        {
          "internalType": "uint256",
          "name": "",
          "type": "uint256"
        }
      ],
      "name": "studentIds",
      "outputs": [
        {
          "internalType": "uint256",
          "name": "",
          "type": "uint256"
        }
      ],
      "stateMutability": "view",
      "type": "function"
    },
    {
      "inputs": [
        {
          "internalType": "uint256",
          "name": "",
          "type": "uint256"
        }
      ],
      "name": "studentIndex",
      "outputs": [
        {
          "internalType": "uint256",
          "name": "",
          "type": "uint256"
        }
      ],
      "stateMutability": "view",
      "type": "function"
    },
    {
      "inputs": [
        {
          "internalType": "uint256",
          "name": "",
          "type": "uint256"
        }
      ],
      "name": "students",
      "outputs": [
        {
          "internalType": "uint256",
          "name": "id",
          "type": "uint256"
        },
        {
          "internalType": "string",
          "name": "name",
          "type": "string"
        },
        {
          "internalType": "uint256",
          "name": "grade",
          "type": "uint256"
        },
        {
          "internalType": "bool",
          "name": "exists",
          "type": "bool"
        }
      ],
      "stateMutability": "view",
      "type": "function"
    }
  ],
  "bytecode": "0x608060405234801561001057600080fd5b50610f8d806100206000396000f3fe608060405234801561001057600080fd5b506004361061007d5760003560e01c80636af838451161005b5780636af83845146100ed5780636f28c35514610109578063cde6a8db14610139578063e581f9ee146101695761007d565b806306ead22e1461008257806342ecc52a146100b557806345215e7e146100d1575b600080fd5b61009c6004803603810190610097919061072e565b610187565b6040516100ac9493929190610815565b60405180910390f35b6100cf60048036038101906100ca9190610996565b61024c565b005b6100eb60048036038101906100e691906109f2565b6103cd565b005b6101076004803603810190610102919061072e565b610485565b005b610123600480360381019061011e919061072e565b610645565b6040516101309190610a32565b60405180910390f35b610153600480360381019061014e919061072e565b610669565b6040516101609190610a32565b60405180910390f35b610171610681565b60405161017e9190610a32565b60405180910390f35b60006020528060005260406000206000915090508060000154908060010180546101b090610a7c565b80601f01602080910402602001604051908101604052809291908181526020018280546101dc90610a7c565b80156102295780601f106101fe57610100808354040283529160200191610229565b820191906000526020600020905b81548152906001019060200180831161020c57829003601f168201915b5050505050908060020154908060030160009054906101000a900460ff16905084565b60008083815260200190815260200160002060030160009054906101000a900460ff16156102af576040517f08c379a00000000000000000000000000000000000000000000000000000000081526004016102a690610af9565b60405180910390fd5b604051806080016040528083815260200182815260200160008152602001600115158152506000808481526020019081526020016000206000820151816000015560208201518160010190816103059190610cc5565b506040820151816002015560608201518160030160006101000a81548160ff021916908315150217905550905050600180549050600260008481526020019081526020016000208190555060018290806001815401808255809150506001900390600052602060002001600090919091909150556003600081548092919061038c90610dc6565b9190505550817f9682c9a3e9734a1f8d3a641838a5d7862f4eb29fcbf4bd04e0ccac28ffcfd227826040516103c19190610e0e565b60405180910390a25050565b60008083815260200190815260200160002060030160009054906101000a900460ff1661042f576040517f08c379a000000000000000000000000000000000000000000000000000000000815260040161042690610e7c565b60405180910390fd5b8060008084815260200190815260200160002060020181905550817fe86876fa18750d6c45b56cb14814b431e5e9b1ea66f51010d8c9dc7e8423c1ca826040516104799190610a32565b60405180910390a25050565b60008082815260200190815260200160002060030160009054906101000a900460ff166104e7576040517f08c379a00000000000000000000000000000000000000000000000000000000081526004016104de90610e7c565b60405180910390fd5b6000600260008381526020019081526020016000205490506000600180805490506105129190610e9c565b905060006001828154811061052a57610529610ed0565b5b90600052602060002001549050806001848154811061054c5761054b610ed0565b5b9060005260206000200181905550826002600083815260200190815260200160002081905550600180548061058457610583610eff565b5b6001900381819060005260206000200160009055905560026000858152602001908152602001600020600090556000808581526020019081526020016000206000808201600090556001820160006105dc9190610687565b60028201600090556003820160006101000a81549060ff021916905550506003600081548092919061060d90610f2e565b9190505550837f59341c48fd0b57ee9c153818be62372ef211cc499da6c2c6d5b8fe49721f36c560405160405180910390a250505050565b6001818154811061065557600080fd5b906000526020600020016000915090505481565b60026020528060005260406000206000915090505481565b60035481565b50805461069390610a7c565b6000825580601f106106a557506106c4565b601f0160209004906000526020600020908101906106c391906106c7565b5b50565b5b808211156106e05760008160009055506001016106c8565b5090565b6000604051905090565b600080fd5b600080fd5b6000819050919050565b61070b816106f8565b811461071657600080fd5b50565b60008135905061072881610702565b92915050565b600060208284031215610744576107436106ee565b5b600061075284828501610719565b91505092915050565b610764816106f8565b82525050565b600081519050919050565b600082825260208201905092915050565b60005b838110156107a4578082015181840152602081019050610789565b60008484015250505050565b6000601f19601f8301169050919050565b60006107cc8261076a565b6107d68185610775565b93506107e6818560208601610786565b6107ef816107b0565b840191505092915050565b60008115159050919050565b61080f816107fa565b82525050565b600060808201905061082a600083018761075b565b818103602083015261083c81866107c1565b905061084b604083018561075b565b6108586060830184610806565b95945050505050565b600080fd5b600080fd5b7f4e487b7100000000000000000000000000000000000000000000000000000000600052604160045260246000fd5b6108a3826107b0565b810181811067ffffffffffffffff821117156108c2576108c161086b565b5b80604052505050565b60006108d56106e4565b90506108e1828261089a565b919050565b600067ffffffffffffffff8211156109015761090061086b565b5b61090a826107b0565b9050602081019050919050565b82818337600083830152505050565b6000610939610934846108e6565b6108cb565b90508281526020810184848401111561095557610954610866565b5b610960848285610917565b509392505050565b600082601f83011261097d5761097c610861565b5b813561098d848260208601610926565b91505092915050565b600080604083850312156109ad576109ac6106ee565b5b60006109bb85828601610719565b925050602083013567ffffffffffffffff8111156109dc576109db6106f3565b5b6109e885828601610968565b9150509250929050565b60008060408385031215610a0957610a086106ee565b5b6000610a1785828601610719565b9250506020610a2885828601610719565b9150509250929050565b6000602082019050610a47600083018461075b565b92915050565b7f4e487b7100000000000000000000000000000000000000000000000000000000600052602260045260246000fd5b60006002820490506001821680610a9457607f821691505b602082108103610aa757610aa6610a4d565b5b50919050565b7f53747564656e7420616c72656164792065786973747300000000000000000000600082015250565b6000610ae3601683610775565b9150610aee82610aad565b602082019050919050565b60006020820190508181036000830152610b1281610ad6565b9050919050565b60008190508160005260206000209050919050565b60006020601f8301049050919050565b600082821b905092915050565b600060088302610b7b7fffffffffffffffffffffffffffffffffffffffffffffffffffffffffffffffff82610b3e565b610b858683610b3e565b95508019841693508086168417925050509392505050565b6000819050919050565b6000610bc2610bbd610bb8846106f8565b610b9d565b6106f8565b9050919050565b6000819050919050565b610bdc83610ba7565b610bf0610be882610bc9565b848454610b4b565b825550505050565b600090565b610c05610bf8565b610c10818484610bd3565b505050565b5b81811015610c3457610c29600082610bfd565b600181019050610c16565b5050565b601f821115610c7957610c4a81610b19565b610c5384610b2e565b81016020851015610c62578190505b610c76610c6e85610b2e565b830182610c15565b50505b505050565b600082821c905092915050565b6000610c9c60001984600802610c7e565b1980831691505092915050565b6000610cb58383610c8b565b9150826002028217905092915050565b610cce8261076a565b67ffffffffffffffff811115610ce757610ce661086b565b5b610cf18254610a7c565b610cfc828285610c38565b600060209050601f831160018114610d2f5760008415610d1d578287015190505b610d278582610ca9565b865550610d8f565b601f198416610d3d86610b19565b60005b82811015610d6557848901518255600182019150602085019450602081019050610d40565b86831015610d825784890151610d7e601f891682610c8b565b8355505b6001600288020188555050505b505050505050565b7f4e487b7100000000000000000000000000000000000000000000000000000000600052601160045260246000fd5b6000610dd1826106f8565b91507fffffffffffffffffffffffffffffffffffffffffffffffffffffffffffffffff8203610e0357610e02610d97565b5b600182019050919050565b60006020820190508181036000830152610e2881846107c1565b905092915050565b7f53747564656e7420646f6573206e6f7420657869737400000000000000000000600082015250565b6000610e66601683610775565b9150610e7182610e30565b602082019050919050565b60006020820190508181036000830152610e9581610e59565b9050919050565b6000610ea7826106f8565b9150610eb2836106f8565b9250828203905081811115610eca57610ec9610d97565b5b92915050565b7f4e487b7100000000000000000000000000000000000000000000000000000000600052603260045260246000fd5b7f4e487b7100000000000000000000000000000000000000000000000000000000600052603160045260246000fd5b6000610f39826106f8565b915060008203610f4c57610f4b610d97565b5b60018203905091905056fea2646970667358221220a9e1dd9dd46ad0bee2a8996441c4964a36f2e2d4215bffeeb81a524833b3d0e464736f6c63430008160033",
  "linkReferences": {},
  "deployedLinkReferences": {}
}