{
  "_format": "hh-sol-artifact-1",
  "contractName": "Credential",
  "sourceName": "contracts/Credential.sol",
  "abi": [
    {
      "anonymous": false,
      "inputs": [
        {
          "indexed": true,
          "internalType": "uint256",
          "name": "id",
          "type": "uint256"
        },
        {
          "indexed": false,
          "internalType": "uint256",
          "name": "grade",
          "type": "uint256"
        }
      ],
      "name": "GradeUpdated",
      "type": "event"
    },
    {
      "anonymous": false,
      "inputs": [
        {
          "indexed": true,
          "internalType": "uint256",
          "name": "id",
          "type": "uint256"
        },
        {
          "indexed": false,
          "internalType": "string",
          "name": "name",
          "type": "string"
        }
      ],
      "name": "StudentAdded",
      "type": "event"
    },
    {
      "anonymous": false,
      "inputs": [
        {
          "indexed": true,
          "internalType": "uint256",
          "name": "id",
          "type": "uint256"
        }
      ],
      "name": "StudentRemoved",
      "type": "event"
    },
    {
      "inputs": [
        {
          "internalType": "uint256",
          "name": "_id",
          "type": "uint256"
        },
        {
          "internalType": "string",
          "name": "_name",
          "type": "string"
        }
      ],
      "name": "addStudent",
      "outputs": [],
      "stateMutability": "nonpayable",
      "type": "function"
    },
    {
      "inputs": [
        {
          "internalType": "uint256",
          "name": "_id",
          "type": "uint256"
        }
      ],
      "name": "removeStudent",
      "outputs": [],
      "stateMutability": "nonpayable",
      "type": "function"
    },
    {
      "inputs": [
        {
          "internalType": "uint256",
          "name": "_id",
          "type": "uint256"
        },
        {
          "internalType": "uint256",
          "name": "_grade",
          "type": "uint256"
        }
      ],
      "name": "setGrade",
      "outputs": [],
      "stateMutability": "nonpayable",
      "type": "function"
    },
    {
      "inputs": [],
      "name": "studentCount",
      "outputs": [
        {
          "internalType": "uint256",
          "name": "",
          "type": "uint256"
        }
      ],
      "stateMutability": "view",
      "type": "function"
    },
    {
      "inputs": [
        {
          "internalType": "uint256",
          "name": "",
          "type": "uint256"
        }
      ],
      "name": "students",
      "outputs": [
        {
          "internalType": "uint256",
          "name": "id",
          "type": "uint256"
        },
        {
          "internalType": "string",
          "name": "name",
          "type": "string"
        },
        {
          "internalType": "uint256",
          "name": "grade",
          "type": "uint256"
        },
        {
          "internalType": "bool",
          "name": "exists",
          "type": "bool"
        }
      ],
      "stateMutability": "view",
      "type": "function"
    }
  ],
  "bytecode": "0x608060405234801561001057600080fd5b50610d26806100206000396000f3fe608060405234801561001057600080fd5b50600436106100575760003560e01c806306ead22e1461005c57806342ecc52a1461008f57806345215e7e146100ab5780636af83845146100c7578063e581f9ee146100e3575b600080fd5b61007660048036038101906100719190610559565b610101565b6040516100869493929190610640565b60405180910390f35b6100a960048036038101906100a491906107c1565b6101c6565b005b6100c560048036038101906100c0919061081d565b610301565b005b6100e160048036038101906100dc9190610559565b6103b9565b005b6100eb6104ac565b6040516100f8919061085d565b60405180910390f35b600060205280600052604060002060009150905080600001549080600101805461012a906108a7565b80601f0160208091040260200160405190810160405280929190818152602001828054610156906108a7565b80156101a35780601f10610178576101008083540402835291602001916101a3565b820191906000526020600020905b81548152906001019060200180831161018657829003601f168201915b5050505050908060020154908060030160009054906101000a900460ff16905084565b60008083815260200190815260200160002060030160009054906101000a900460ff1615610229576040517f08c379a000000000000000000000000000000000000000000000000000000000815260040161022090610924565b60405180910390fd5b6040518060800160405280838152602001828152602001600081526020016001151581525060008084815260200190815260200160002060008201518160000155602082015181600101908161027f9190610af0565b506040820151816002015560608201518160030160006101000a81548160ff021916908315150217905550905050600160008154809291906102c090610bf1565b9190505550817f9682c9a3e9734a1f8d3a641838a5d7862f4eb29fcbf4bd04e0ccac28ffcfd227826040516102f59190610c39565b60405180910390a25050565b60008083815260200190815260200160002060030160009054906101000a900460ff16610363576040517f08c379a000000000000000000000000000000000000000000000000000000000815260040161035a90610ca7565b60405180910390fd5b8060008084815260200190815260200160002060020181905550817fe86876fa18750d6c45b56cb14814b431e5e9b1ea66f51010d8c9dc7e8423c1ca826040516103ad919061085d565b60405180910390a25050565b60008082815260200190815260200160002060030160009054906101000a900460ff1661041b576040517f08c379a000000000000000000000000000000000000000000000000000000000815260040161041290610ca7565b60405180910390fd5b60008082815260200190815260200160002060008082016000905560018201600061044691906104b2565b60028201600090556003820160006101000a81549060ff021916905550506001600081548092919061047790610cc7565b9190505550807f59341c48fd0b57ee9c153818be62372ef211cc499da6c2c6d5b8fe49721f36c560405160405180910390a250565b60015481565b5080546104be906108a7565b6000825580601f106104d057506104ef565b601f0160209004906000526020600020908101906104ee91906104f2565b5b50565b5b8082111561050b5760008160009055506001016104f3565b5090565b6000604051905090565b600080fd5b600080fd5b6000819050919050565b61053681610523565b811461054157600080fd5b50565b6000813590506105538161052d565b92915050565b60006020828403121561056f5761056e610519565b5b600061057d84828501610544565b91505092915050565b61058f81610523565b82525050565b600081519050919050565b600082825260208201905092915050565b60005b838110156105cf5780820151818401526020810190506105b4565b60008484015250505050565b6000601f19601f8301169050919050565b60006105f782610595565b61060181856105a0565b93506106118185602086016105b1565b61061a816105db565b840191505092915050565b60008115159050919050565b61063a81610625565b82525050565b60006080820190506106556000830187610586565b818103602083015261066781866105ec565b90506106766040830185610586565b6106836060830184610631565b95945050505050565b600080fd5b600080fd5b7f4e487b7100000000000000000000000000000000000000000000000000000000600052604160045260246000fd5b6106ce826105db565b810181811067ffffffffffffffff821117156106ed576106ec610696565b5b80604052505050565b600061070061050f565b905061070c82826106c5565b919050565b600067ffffffffffffffff82111561072c5761072b610696565b5b610735826105db565b9050602081019050919050565b82818337600083830152505050565b600061076461075f84610711565b6106f6565b9050828152602081018484840111156107805761077f610691565b5b61078b848285610742565b509392505050565b600082601f8301126107a8576107a761068c565b5b81356107b8848260208601610751565b91505092915050565b600080604083850312156107d8576107d7610519565b5b60006107e685828601610544565b925050602083013567ffffffffffffffff8111156108075761080661051e565b5b61081385828601610793565b9150509250929050565b6000806040838503121561083457610833610519565b5b600061084285828601610544565b925050602061085385828601610544565b9150509250929050565b60006020820190506108726000830184610586565b92915050565b7f4e487b7100000000000000000000000000000000000000000000000000000000600052602260045260246000fd5b600060028204905060018216806108bf57607f821691505b6020821081036108d2576108d1610878565b5b50919050565b7f53747564656e7420616c72656164792065786973747300000000000000000000600082015250565b600061090e6016836105a0565b9150610919826108d8565b602082019050919050565b6000602082019050818103600083015261093d81610901565b9050919050565b60008190508160005260206000209050919050565b60006020601f8301049050919050565b600082821b905092915050565b6000600883026109a67fffffffffffffffffffffffffffffffffffffffffffffffffffffffffffffffff82610969565b6109b08683610969565b95508019841693508086168417925050509392505050565b6000819050919050565b60006109ed6109e86109e384610523565b6109c8565b610523565b9050919050565b6000819050919050565b610a07836109d2565b610a1b610a13826109f4565b848454610976565b825550505050565b600090565b610a30610a23565b610a3b8184846109fe565b505050565b5b81811015610a5f57610a54600082610a28565b600181019050610a41565b5050565b601f821115610aa457610a7581610944565b610a7e84610959565b81016020851015610a8d578190505b610aa1610a9985610959565b830182610a40565b50505b505050565b600082821c905092915050565b6000610ac760001984600802610aa9565b1980831691505092915050565b6000610ae08383610ab6565b9150826002028217905092915050565b610af982610595565b67ffffffffffffffff811115610b1257610b11610696565b5b610b1c82546108a7565b610b27828285610a63565b600060209050601f831160018114610b5a5760008415610b48578287015190505b610b528582610ad4565b865550610bba565b601f198416610b6886610944565b60005b82811015610b9057848901518255600182019150602085019450602081019050610b6b565b86831015610bad5784890151610ba9601f891682610ab6565b8355505b6001600288020188555050505b505050505050565b7f4e487b7100000000000000000000000000000000000000000000000000000000600052601160045260246000fd5b6000610bfc82610523565b91507fffffffffffffffffffffffffffffffffffffffffffffffffffffffffffffffff8203610c2e57610c2d610bc2565b5b600182019050919050565b60006020820190508181036000830152610c5381846105ec565b905092915050565b7f53747564656e7420646f6573206e6f7420657869737400000000000000000000600082015250565b6000610c916016836105a0565b9150610c9c82610c5b565b602082019050919050565b60006020820190508181036000830152610cc081610c84565b9050919050565b6000610cd282610523565b915060008203610ce557610ce4610bc2565b5b60018203905091905056fea2646970667358221220b87193a1d2509712228b57744bcbb32e6e4ef6402aa2d2fd1a90a37c64891bd264736f6c63430008160033",
  "linkReferences": {},
  "deployedLinkReferences": {}
}